{
  "_format": "hh-sol-artifact-1",
  "contractName": "NFTDocuments",
  "sourceName": "contracts/NFTDocuments.sol",
  "abi": [
    {
      "inputs": [],
      "stateMutability": "nonpayable",
      "type": "constructor"
    },
    {
      "anonymous": false,
      "inputs": [
        {
          "indexed": true,
          "internalType": "address",
          "name": "owner",
          "type": "address"
        },
        {
          "indexed": true,
          "internalType": "address",
          "name": "approved",
          "type": "address"
        },
        {
          "indexed": true,
          "internalType": "uint256",
          "name": "tokenId",
          "type": "uint256"
        }
      ],
      "name": "Approval",
      "type": "event"
    },
    {
      "anonymous": false,
      "inputs": [
        {
          "indexed": true,
          "internalType": "address",
          "name": "owner",
          "type": "address"
        },
        {
          "indexed": true,
          "internalType": "address",
          "name": "operator",
          "type": "address"
        },
        {
          "indexed": false,
          "internalType": "bool",
          "name": "approved",
          "type": "bool"
        }
      ],
      "name": "ApprovalForAll",
      "type": "event"
    },
    {
      "anonymous": false,
      "inputs": [
        {
          "indexed": true,
          "internalType": "address",
          "name": "from",
          "type": "address"
        },
        {
          "indexed": true,
          "internalType": "address",
          "name": "to",
          "type": "address"
        },
        {
          "indexed": true,
          "internalType": "uint256",
          "name": "tokenId",
          "type": "uint256"
        }
      ],
      "name": "Transfer",
      "type": "event"
    },
    {
      "inputs": [
        {
          "internalType": "address",
          "name": "to",
          "type": "address"
        },
        {
          "internalType": "uint256",
          "name": "tokenId",
          "type": "uint256"
        }
      ],
      "name": "approve",
      "outputs": [],
      "stateMutability": "nonpayable",
      "type": "function"
    },
    {
      "inputs": [
        {
          "internalType": "address",
          "name": "owner",
          "type": "address"
        }
      ],
      "name": "balanceOf",
      "outputs": [
        {
          "internalType": "uint256",
          "name": "",
          "type": "uint256"
        }
      ],
      "stateMutability": "view",
      "type": "function"
    },
    {
      "inputs": [
        {
          "internalType": "string",
          "name": "tokenURI",
          "type": "string"
        }
      ],
      "name": "createToken",
      "outputs": [
        {
          "internalType": "uint256",
          "name": "",
          "type": "uint256"
        }
      ],
      "stateMutability": "payable",
      "type": "function"
    },
    {
      "inputs": [],
      "name": "fetchItemsListed",
      "outputs": [
        {
          "components": [
            {
              "internalType": "uint256",
              "name": "tokenId",
              "type": "uint256"
            },
            {
              "internalType": "address",
              "name": "creator",
              "type": "address"
            },
            {
              "internalType": "address",
              "name": "owner",
              "type": "address"
            }
          ],
          "internalType": "struct NFTDocuments.PlatformItem[]",
          "name": "",
          "type": "tuple[]"
        }
      ],
      "stateMutability": "view",
      "type": "function"
    },
    {
      "inputs": [],
      "name": "fetchMyNFTs",
      "outputs": [
        {
          "components": [
            {
              "internalType": "uint256",
              "name": "tokenId",
              "type": "uint256"
            },
            {
              "internalType": "address",
              "name": "creator",
              "type": "address"
            },
            {
              "internalType": "address",
              "name": "owner",
              "type": "address"
            }
          ],
          "internalType": "struct NFTDocuments.PlatformItem[]",
          "name": "",
          "type": "tuple[]"
        }
      ],
      "stateMutability": "view",
      "type": "function"
    },
    {
      "inputs": [
        {
          "internalType": "uint256",
          "name": "tokenId",
          "type": "uint256"
        }
      ],
      "name": "getApproved",
      "outputs": [
        {
          "internalType": "address",
          "name": "",
          "type": "address"
        }
      ],
      "stateMutability": "view",
      "type": "function"
    },
    {
      "inputs": [],
      "name": "getMintingPrice",
      "outputs": [
        {
          "internalType": "uint256",
          "name": "",
          "type": "uint256"
        }
      ],
      "stateMutability": "view",
      "type": "function"
    },
    {
      "inputs": [
        {
          "internalType": "address",
          "name": "owner",
          "type": "address"
        },
        {
          "internalType": "address",
          "name": "operator",
          "type": "address"
        }
      ],
      "name": "isApprovedForAll",
      "outputs": [
        {
          "internalType": "bool",
          "name": "",
          "type": "bool"
        }
      ],
      "stateMutability": "view",
      "type": "function"
    },
    {
      "inputs": [],
      "name": "name",
      "outputs": [
        {
          "internalType": "string",
          "name": "",
          "type": "string"
        }
      ],
      "stateMutability": "view",
      "type": "function"
    },
    {
      "inputs": [
        {
          "internalType": "uint256",
          "name": "tokenId",
          "type": "uint256"
        }
      ],
      "name": "ownerOf",
      "outputs": [
        {
          "internalType": "address",
          "name": "",
          "type": "address"
        }
      ],
      "stateMutability": "view",
      "type": "function"
    },
    {
      "inputs": [
        {
          "internalType": "address",
          "name": "from",
          "type": "address"
        },
        {
          "internalType": "address",
          "name": "to",
          "type": "address"
        },
        {
          "internalType": "uint256",
          "name": "tokenId",
          "type": "uint256"
        }
      ],
      "name": "safeTransferFrom",
      "outputs": [],
      "stateMutability": "nonpayable",
      "type": "function"
    },
    {
      "inputs": [
        {
          "internalType": "address",
          "name": "from",
          "type": "address"
        },
        {
          "internalType": "address",
          "name": "to",
          "type": "address"
        },
        {
          "internalType": "uint256",
          "name": "tokenId",
          "type": "uint256"
        },
        {
          "internalType": "bytes",
          "name": "data",
          "type": "bytes"
        }
      ],
      "name": "safeTransferFrom",
      "outputs": [],
      "stateMutability": "nonpayable",
      "type": "function"
    },
    {
      "inputs": [
        {
          "internalType": "address",
          "name": "operator",
          "type": "address"
        },
        {
          "internalType": "bool",
          "name": "approved",
          "type": "bool"
        }
      ],
      "name": "setApprovalForAll",
      "outputs": [],
      "stateMutability": "nonpayable",
      "type": "function"
    },
    {
      "inputs": [
        {
          "internalType": "bytes4",
          "name": "interfaceId",
          "type": "bytes4"
        }
      ],
      "name": "supportsInterface",
      "outputs": [
        {
          "internalType": "bool",
          "name": "",
          "type": "bool"
        }
      ],
      "stateMutability": "view",
      "type": "function"
    },
    {
      "inputs": [],
      "name": "symbol",
      "outputs": [
        {
          "internalType": "string",
          "name": "",
          "type": "string"
        }
      ],
      "stateMutability": "view",
      "type": "function"
    },
    {
      "inputs": [
        {
          "internalType": "uint256",
          "name": "tokenId",
          "type": "uint256"
        }
      ],
      "name": "tokenURI",
      "outputs": [
        {
          "internalType": "string",
          "name": "",
          "type": "string"
        }
      ],
      "stateMutability": "view",
      "type": "function"
    },
    {
      "inputs": [
        {
          "internalType": "address",
          "name": "from",
          "type": "address"
        },
        {
          "internalType": "address",
          "name": "to",
          "type": "address"
        },
        {
          "internalType": "uint256",
          "name": "tokenId",
          "type": "uint256"
        }
      ],
      "name": "transferFrom",
      "outputs": [],
      "stateMutability": "nonpayable",
      "type": "function"
    },
    {
      "inputs": [
        {
          "internalType": "address",
          "name": "to",
          "type": "address"
        },
        {
          "internalType": "uint256",
          "name": "tokenId",
          "type": "uint256"
        }
      ],
      "name": "transferToken",
      "outputs": [],
      "stateMutability": "nonpayable",
      "type": "function"
    },
    {
      "inputs": [
        {
          "internalType": "uint256",
          "name": "_mintPrice",
          "type": "uint256"
        }
      ],
      "name": "updateMintPrice",
      "outputs": [],
      "stateMutability": "payable",
      "type": "function"
    }
  ],
  "bytecode": "0x6080604052671bc16d674ec800006008553480156200001d57600080fd5b506040518060400160405280600d81526020017f4e465420446f63756d656e7473000000000000000000000000000000000000008152506040518060400160405280600281526020017f4e4400000000000000000000000000000000000000000000000000000000000081525081600090816200009b919062000371565b508060019081620000ad919062000371565b50505033600960006101000a81548173ffffffffffffffffffffffffffffffffffffffff021916908373ffffffffffffffffffffffffffffffffffffffff16021790555062000458565b600081519050919050565b7f4e487b7100000000000000000000000000000000000000000000000000000000600052604160045260246000fd5b7f4e487b7100000000000000000000000000000000000000000000000000000000600052602260045260246000fd5b600060028204905060018216806200017957607f821691505b6020821081036200018f576200018e62000131565b5b50919050565b60008190508160005260206000209050919050565b60006020601f8301049050919050565b600082821b905092915050565b600060088302620001f97fffffffffffffffffffffffffffffffffffffffffffffffffffffffffffffffff82620001ba565b620002058683620001ba565b95508019841693508086168417925050509392505050565b6000819050919050565b6000819050919050565b6000620002526200024c62000246846200021d565b62000227565b6200021d565b9050919050565b6000819050919050565b6200026e8362000231565b620002866200027d8262000259565b848454620001c7565b825550505050565b600090565b6200029d6200028e565b620002aa81848462000263565b505050565b5b81811015620002d257620002c660008262000293565b600181019050620002b0565b5050565b601f8211156200032157620002eb8162000195565b620002f684620001aa565b8101602085101562000306578190505b6200031e6200031585620001aa565b830182620002af565b50505b505050565b600082821c905092915050565b6000620003466000198460080262000326565b1980831691505092915050565b600062000361838362000333565b9150826002028217905092915050565b6200037c82620000f7565b67ffffffffffffffff81111562000398576200039762000102565b5b620003a4825462000160565b620003b1828285620002d6565b600060209050601f831160018114620003e95760008415620003d4578287015190505b620003e0858262000353565b86555062000450565b601f198416620003f98662000195565b60005b828110156200042357848901518255600182019150602085019450602081019050620003fc565b868310156200044357848901516200043f601f89168262000333565b8355505b6001600288020188555050505b505050505050565b613a8880620004686000396000f3fe6080604052600436106101135760003560e01c806345576f94116100a057806395d89b411161006457806395d89b41146103a8578063a22cb465146103d3578063b88d4fde146103fc578063c87b56dd14610425578063e985e9c51461046257610113565b806345576f94146102a857806345f8fa80146102d85780636352211e1461030357806370a082311461034057806377d247621461037d57610113565b8063095ea7b3116100e7578063095ea7b3146101d95780631072cbea14610202578063202e37401461022b57806323b872dd1461025657806342842e0e1461027f57610113565b8062728e461461011857806301ffc9a71461013457806306fdde0314610171578063081812fc1461019c575b600080fd5b610132600480360381019061012d9190612507565b61049f565b005b34801561014057600080fd5b5061015b6004803603810190610156919061258c565b610539565b60405161016891906125d4565b60405180910390f35b34801561017d57600080fd5b5061018661061b565b604051610193919061267f565b60405180910390f35b3480156101a857600080fd5b506101c360048036038101906101be9190612507565b6106ad565b6040516101d091906126e2565b60405180910390f35b3480156101e557600080fd5b5061020060048036038101906101fb9190612729565b6106f3565b005b34801561020e57600080fd5b5061022960048036038101906102249190612729565b61080a565b005b34801561023757600080fd5b50610240610981565b60405161024d9190612878565b60405180910390f35b34801561026257600080fd5b5061027d6004803603810190610278919061289a565b610c48565b005b34801561028b57600080fd5b506102a660048036038101906102a1919061289a565b610ca8565b005b6102c260048036038101906102bd9190612a22565b610cc8565b6040516102cf9190612a7a565b60405180910390f35b3480156102e457600080fd5b506102ed610d4c565b6040516102fa9190612878565b60405180910390f35b34801561030f57600080fd5b5061032a60048036038101906103259190612507565b611013565b60405161033791906126e2565b60405180910390f35b34801561034c57600080fd5b5061036760048036038101906103629190612a95565b611099565b6040516103749190612a7a565b60405180910390f35b34801561038957600080fd5b50610392611150565b60405161039f9190612a7a565b60405180910390f35b3480156103b457600080fd5b506103bd61115a565b6040516103ca919061267f565b60405180910390f35b3480156103df57600080fd5b506103fa60048036038101906103f59190612aee565b6111ec565b005b34801561040857600080fd5b50610423600480360381019061041e9190612bcf565b611202565b005b34801561043157600080fd5b5061044c60048036038101906104479190612507565b611264565b604051610459919061267f565b60405180910390f35b34801561046e57600080fd5b5061048960048036038101906104849190612c52565b611376565b60405161049691906125d4565b60405180910390f35b3373ffffffffffffffffffffffffffffffffffffffff16600960009054906101000a900473ffffffffffffffffffffffffffffffffffffffff1673ffffffffffffffffffffffffffffffffffffffff161461052f576040517f08c379a000000000000000000000000000000000000000000000000000000000815260040161052690612d04565b60405180910390fd5b8060088190555050565b60007f80ac58cd000000000000000000000000000000000000000000000000000000007bffffffffffffffffffffffffffffffffffffffffffffffffffffffff1916827bffffffffffffffffffffffffffffffffffffffffffffffffffffffff1916148061060457507f5b5e139f000000000000000000000000000000000000000000000000000000007bffffffffffffffffffffffffffffffffffffffffffffffffffffffff1916827bffffffffffffffffffffffffffffffffffffffffffffffffffffffff1916145b8061061457506106138261140a565b5b9050919050565b60606000805461062a90612d53565b80601f016020809104026020016040519081016040528092919081815260200182805461065690612d53565b80156106a35780601f10610678576101008083540402835291602001916106a3565b820191906000526020600020905b81548152906001019060200180831161068657829003601f168201915b5050505050905090565b60006106b882611474565b6004600083815260200190815260200160002060009054906101000a900473ffffffffffffffffffffffffffffffffffffffff169050919050565b60006106fe82611013565b90508073ffffffffffffffffffffffffffffffffffffffff168373ffffffffffffffffffffffffffffffffffffffff160361076e576040517f08c379a000000000000000000000000000000000000000000000000000000000815260040161076590612df6565b60405180910390fd5b8073ffffffffffffffffffffffffffffffffffffffff1661078d6114bf565b73ffffffffffffffffffffffffffffffffffffffff1614806107bc57506107bb816107b66114bf565b611376565b5b6107fb576040517f08c379a00000000000000000000000000000000000000000000000000000000081526004016107f290612e88565b60405180910390fd5b61080583836114c7565b505050565b3373ffffffffffffffffffffffffffffffffffffffff16600a600083815260200190815260200160002060020160009054906101000a900473ffffffffffffffffffffffffffffffffffffffff1673ffffffffffffffffffffffffffffffffffffffff16146108ae576040517f08c379a00000000000000000000000000000000000000000000000000000000081526004016108a590612f1a565b60405180910390fd5b600073ffffffffffffffffffffffffffffffffffffffff168273ffffffffffffffffffffffffffffffffffffffff160361091d576040517f08c379a000000000000000000000000000000000000000000000000000000000815260040161091490612f86565b60405180910390fd5b81600a600083815260200190815260200160002060020160006101000a81548173ffffffffffffffffffffffffffffffffffffffff021916908373ffffffffffffffffffffffffffffffffffffffff16021790555061097d338383611580565b5050565b6060600061098f6007611879565b905060008060005b83811015610a37573373ffffffffffffffffffffffffffffffffffffffff16600a60006001846109c79190612fd5565b815260200190815260200160002060020160009054906101000a900473ffffffffffffffffffffffffffffffffffffffff1673ffffffffffffffffffffffffffffffffffffffff1603610a2457600183610a219190612fd5565b92505b8080610a2f90613009565b915050610997565b5060008267ffffffffffffffff811115610a5457610a536128f7565b5b604051908082528060200260200182016040528015610a8d57816020015b610a7a612470565b815260200190600190039081610a725790505b50905060005b84811015610c3d573373ffffffffffffffffffffffffffffffffffffffff16600a6000600184610ac39190612fd5565b815260200190815260200160002060020160009054906101000a900473ffffffffffffffffffffffffffffffffffffffff1673ffffffffffffffffffffffffffffffffffffffff1603610c2a576000600182610b1f9190612fd5565b90506000600a6000838152602001908152602001600020905080604051806060016040529081600082015481526020016001820160009054906101000a900473ffffffffffffffffffffffffffffffffffffffff1673ffffffffffffffffffffffffffffffffffffffff1673ffffffffffffffffffffffffffffffffffffffff1681526020016002820160009054906101000a900473ffffffffffffffffffffffffffffffffffffffff1673ffffffffffffffffffffffffffffffffffffffff1673ffffffffffffffffffffffffffffffffffffffff1681525050848681518110610c0d57610c0c613051565b5b6020026020010181905250600185610c259190612fd5565b945050505b8080610c3590613009565b915050610a93565b508094505050505090565b610c59610c536114bf565b82611887565b610c98576040517f08c379a0000000000000000000000000000000000000000000000000000000008152600401610c8f906130f2565b60405180910390fd5b610ca3838383611580565b505050565b610cc383838360405180602001604052806000815250611202565b505050565b60006008543414610d0e576040517f08c379a0000000000000000000000000000000000000000000000000000000008152600401610d0590613184565b60405180910390fd5b610d18600761191c565b6000610d246007611879565b9050610d303382611932565b610d3a8184611b4f565b610d4381611bbc565b80915050919050565b60606000610d5a6007611879565b905060008060005b83811015610e02573373ffffffffffffffffffffffffffffffffffffffff16600a6000600184610d929190612fd5565b815260200190815260200160002060010160009054906101000a900473ffffffffffffffffffffffffffffffffffffffff1673ffffffffffffffffffffffffffffffffffffffff1603610def57600183610dec9190612fd5565b92505b8080610dfa90613009565b915050610d62565b5060008267ffffffffffffffff811115610e1f57610e1e6128f7565b5b604051908082528060200260200182016040528015610e5857816020015b610e45612470565b815260200190600190039081610e3d5790505b50905060005b84811015611008573373ffffffffffffffffffffffffffffffffffffffff16600a6000600184610e8e9190612fd5565b815260200190815260200160002060010160009054906101000a900473ffffffffffffffffffffffffffffffffffffffff1673ffffffffffffffffffffffffffffffffffffffff1603610ff5576000600182610eea9190612fd5565b90506000600a6000838152602001908152602001600020905080604051806060016040529081600082015481526020016001820160009054906101000a900473ffffffffffffffffffffffffffffffffffffffff1673ffffffffffffffffffffffffffffffffffffffff1673ffffffffffffffffffffffffffffffffffffffff1681526020016002820160009054906101000a900473ffffffffffffffffffffffffffffffffffffffff1673ffffffffffffffffffffffffffffffffffffffff1673ffffffffffffffffffffffffffffffffffffffff1681525050848681518110610fd857610fd7613051565b5b6020026020010181905250600185610ff09190612fd5565b945050505b808061100090613009565b915050610e5e565b508094505050505090565b60008061101f83611cb4565b9050600073ffffffffffffffffffffffffffffffffffffffff168173ffffffffffffffffffffffffffffffffffffffff1603611090576040517f08c379a0000000000000000000000000000000000000000000000000000000008152600401611087906131f0565b60405180910390fd5b80915050919050565b60008073ffffffffffffffffffffffffffffffffffffffff168273ffffffffffffffffffffffffffffffffffffffff1603611109576040517f08c379a000000000000000000000000000000000000000000000000000000000815260040161110090613282565b60405180910390fd5b600360008373ffffffffffffffffffffffffffffffffffffffff1673ffffffffffffffffffffffffffffffffffffffff168152602001908152602001600020549050919050565b6000600854905090565b60606001805461116990612d53565b80601f016020809104026020016040519081016040528092919081815260200182805461119590612d53565b80156111e25780601f106111b7576101008083540402835291602001916111e2565b820191906000526020600020905b8154815290600101906020018083116111c557829003601f168201915b5050505050905090565b6111fe6111f76114bf565b8383611cf1565b5050565b61121361120d6114bf565b83611887565b611252576040517f08c379a0000000000000000000000000000000000000000000000000000000008152600401611249906130f2565b60405180910390fd5b61125e84848484611e5d565b50505050565b606061126f82611474565b600060066000848152602001908152602001600020805461128f90612d53565b80601f01602080910402602001604051908101604052809291908181526020018280546112bb90612d53565b80156113085780601f106112dd57610100808354040283529160200191611308565b820191906000526020600020905b8154815290600101906020018083116112eb57829003601f168201915b505050505090506000611319611eb9565b9050600081510361132e578192505050611371565b60008251111561136357808260405160200161134b9291906132de565b60405160208183030381529060405292505050611371565b61136c84611ed0565b925050505b919050565b6000600560008473ffffffffffffffffffffffffffffffffffffffff1673ffffffffffffffffffffffffffffffffffffffff16815260200190815260200160002060008373ffffffffffffffffffffffffffffffffffffffff1673ffffffffffffffffffffffffffffffffffffffff16815260200190815260200160002060009054906101000a900460ff16905092915050565b60007f01ffc9a7000000000000000000000000000000000000000000000000000000007bffffffffffffffffffffffffffffffffffffffffffffffffffffffff1916827bffffffffffffffffffffffffffffffffffffffffffffffffffffffff1916149050919050565b61147d81611f38565b6114bc576040517f08c379a00000000000000000000000000000000000000000000000000000000081526004016114b3906131f0565b60405180910390fd5b50565b600033905090565b816004600083815260200190815260200160002060006101000a81548173ffffffffffffffffffffffffffffffffffffffff021916908373ffffffffffffffffffffffffffffffffffffffff160217905550808273ffffffffffffffffffffffffffffffffffffffff1661153a83611013565b73ffffffffffffffffffffffffffffffffffffffff167f8c5be1e5ebec7d5bd14f71427d1e84f3dd0314c0f7b2291e5b200ac8c7c3b92560405160405180910390a45050565b8273ffffffffffffffffffffffffffffffffffffffff166115a082611013565b73ffffffffffffffffffffffffffffffffffffffff16146115f6576040517f08c379a00000000000000000000000000000000000000000000000000000000081526004016115ed90613374565b60405180910390fd5b600073ffffffffffffffffffffffffffffffffffffffff168273ffffffffffffffffffffffffffffffffffffffff1603611665576040517f08c379a000000000000000000000000000000000000000000000000000000000815260040161165c90613406565b60405180910390fd5b6116728383836001611f79565b8273ffffffffffffffffffffffffffffffffffffffff1661169282611013565b73ffffffffffffffffffffffffffffffffffffffff16146116e8576040517f08c379a00000000000000000000000000000000000000000000000000000000081526004016116df90613374565b60405180910390fd5b6004600082815260200190815260200160002060006101000a81549073ffffffffffffffffffffffffffffffffffffffff02191690556001600360008573ffffffffffffffffffffffffffffffffffffffff1673ffffffffffffffffffffffffffffffffffffffff168152602001908152602001600020600082825403925050819055506001600360008473ffffffffffffffffffffffffffffffffffffffff1673ffffffffffffffffffffffffffffffffffffffff16815260200190815260200160002060008282540192505081905550816002600083815260200190815260200160002060006101000a81548173ffffffffffffffffffffffffffffffffffffffff021916908373ffffffffffffffffffffffffffffffffffffffff160217905550808273ffffffffffffffffffffffffffffffffffffffff168473ffffffffffffffffffffffffffffffffffffffff167fddf252ad1be2c89b69c2b068fc378daa952ba7f163c4a11628f55a4df523b3ef60405160405180910390a4611874838383600161209f565b505050565b600081600001549050919050565b60008061189383611013565b90508073ffffffffffffffffffffffffffffffffffffffff168473ffffffffffffffffffffffffffffffffffffffff1614806118d557506118d48185611376565b5b8061191357508373ffffffffffffffffffffffffffffffffffffffff166118fb846106ad565b73ffffffffffffffffffffffffffffffffffffffff16145b91505092915050565b6001816000016000828254019250508190555050565b600073ffffffffffffffffffffffffffffffffffffffff168273ffffffffffffffffffffffffffffffffffffffff16036119a1576040517f08c379a000000000000000000000000000000000000000000000000000000000815260040161199890613472565b60405180910390fd5b6119aa81611f38565b156119ea576040517f08c379a00000000000000000000000000000000000000000000000000000000081526004016119e1906134de565b60405180910390fd5b6119f8600083836001611f79565b611a0181611f38565b15611a41576040517f08c379a0000000000000000000000000000000000000000000000000000000008152600401611a38906134de565b60405180910390fd5b6001600360008473ffffffffffffffffffffffffffffffffffffffff1673ffffffffffffffffffffffffffffffffffffffff16815260200190815260200160002060008282540192505081905550816002600083815260200190815260200160002060006101000a81548173ffffffffffffffffffffffffffffffffffffffff021916908373ffffffffffffffffffffffffffffffffffffffff160217905550808273ffffffffffffffffffffffffffffffffffffffff16600073ffffffffffffffffffffffffffffffffffffffff167fddf252ad1be2c89b69c2b068fc378daa952ba7f163c4a11628f55a4df523b3ef60405160405180910390a4611b4b60008383600161209f565b5050565b611b5882611f38565b611b97576040517f08c379a0000000000000000000000000000000000000000000000000000000008152600401611b8e90613570565b60405180910390fd5b80600660008481526020019081526020016000209081611bb7919061373c565b505050565b60405180606001604052808281526020013373ffffffffffffffffffffffffffffffffffffffff1681526020013373ffffffffffffffffffffffffffffffffffffffff16815250600a60008381526020019081526020016000206000820151816000015560208201518160010160006101000a81548173ffffffffffffffffffffffffffffffffffffffff021916908373ffffffffffffffffffffffffffffffffffffffff16021790555060408201518160020160006101000a81548173ffffffffffffffffffffffffffffffffffffffff021916908373ffffffffffffffffffffffffffffffffffffffff16021790555090505050565b60006002600083815260200190815260200160002060009054906101000a900473ffffffffffffffffffffffffffffffffffffffff169050919050565b8173ffffffffffffffffffffffffffffffffffffffff168373ffffffffffffffffffffffffffffffffffffffff1603611d5f576040517f08c379a0000000000000000000000000000000000000000000000000000000008152600401611d569061385a565b60405180910390fd5b80600560008573ffffffffffffffffffffffffffffffffffffffff1673ffffffffffffffffffffffffffffffffffffffff16815260200190815260200160002060008473ffffffffffffffffffffffffffffffffffffffff1673ffffffffffffffffffffffffffffffffffffffff16815260200190815260200160002060006101000a81548160ff0219169083151502179055508173ffffffffffffffffffffffffffffffffffffffff168373ffffffffffffffffffffffffffffffffffffffff167f17307eab39ab6107e8899845ad3d59bd9653f200f220920489ca2b5937696c3183604051611e5091906125d4565b60405180910390a3505050565b611e68848484611580565b611e74848484846120a5565b611eb3576040517f08c379a0000000000000000000000000000000000000000000000000000000008152600401611eaa906138ec565b60405180910390fd5b50505050565b606060405180602001604052806000815250905090565b6060611edb82611474565b6000611ee5611eb9565b90506000815111611f055760405180602001604052806000815250611f30565b80611f0f8461222c565b604051602001611f209291906132de565b6040516020818303038152906040525b915050919050565b60008073ffffffffffffffffffffffffffffffffffffffff16611f5a83611cb4565b73ffffffffffffffffffffffffffffffffffffffff1614159050919050565b600181111561209957600073ffffffffffffffffffffffffffffffffffffffff168473ffffffffffffffffffffffffffffffffffffffff161461200d5780600360008673ffffffffffffffffffffffffffffffffffffffff1673ffffffffffffffffffffffffffffffffffffffff1681526020019081526020016000206000828254612005919061390c565b925050819055505b600073ffffffffffffffffffffffffffffffffffffffff168373ffffffffffffffffffffffffffffffffffffffff16146120985780600360008573ffffffffffffffffffffffffffffffffffffffff1673ffffffffffffffffffffffffffffffffffffffff16815260200190815260200160002060008282546120909190612fd5565b925050819055505b5b50505050565b50505050565b60006120c68473ffffffffffffffffffffffffffffffffffffffff166122fa565b1561221f578373ffffffffffffffffffffffffffffffffffffffff1663150b7a026120ef6114bf565b8786866040518563ffffffff1660e01b81526004016121119493929190613995565b6020604051808303816000875af192505050801561214d57506040513d601f19601f8201168201806040525081019061214a91906139f6565b60015b6121cf573d806000811461217d576040519150601f19603f3d011682016040523d82523d6000602084013e612182565b606091505b5060008151036121c7576040517f08c379a00000000000000000000000000000000000000000000000000000000081526004016121be906138ec565b60405180910390fd5b805181602001fd5b63150b7a0260e01b7bffffffffffffffffffffffffffffffffffffffffffffffffffffffff1916817bffffffffffffffffffffffffffffffffffffffffffffffffffffffff191614915050612224565b600190505b949350505050565b60606000600161223b8461231d565b01905060008167ffffffffffffffff81111561225a576122596128f7565b5b6040519080825280601f01601f19166020018201604052801561228c5781602001600182028036833780820191505090505b509050600082602001820190505b6001156122ef578080600190039150507f3031323334353637383961626364656600000000000000000000000000000000600a86061a8153600a85816122e3576122e2613a23565b5b0494506000850361229a575b819350505050919050565b6000808273ffffffffffffffffffffffffffffffffffffffff163b119050919050565b600080600090507a184f03e93ff9f4daa797ed6e38ed64bf6a1f010000000000000000831061237b577a184f03e93ff9f4daa797ed6e38ed64bf6a1f010000000000000000838161237157612370613a23565b5b0492506040810190505b6d04ee2d6d415b85acef810000000083106123b8576d04ee2d6d415b85acef810000000083816123ae576123ad613a23565b5b0492506020810190505b662386f26fc1000083106123e757662386f26fc1000083816123dd576123dc613a23565b5b0492506010810190505b6305f5e1008310612410576305f5e100838161240657612405613a23565b5b0492506008810190505b612710831061243557612710838161242b5761242a613a23565b5b0492506004810190505b60648310612458576064838161244e5761244d613a23565b5b0492506002810190505b600a8310612467576001810190505b80915050919050565b604051806060016040528060008152602001600073ffffffffffffffffffffffffffffffffffffffff168152602001600073ffffffffffffffffffffffffffffffffffffffff1681525090565b6000604051905090565b600080fd5b600080fd5b6000819050919050565b6124e4816124d1565b81146124ef57600080fd5b50565b600081359050612501816124db565b92915050565b60006020828403121561251d5761251c6124c7565b5b600061252b848285016124f2565b91505092915050565b60007fffffffff0000000000000000000000000000000000000000000000000000000082169050919050565b61256981612534565b811461257457600080fd5b50565b60008135905061258681612560565b92915050565b6000602082840312156125a2576125a16124c7565b5b60006125b084828501612577565b91505092915050565b60008115159050919050565b6125ce816125b9565b82525050565b60006020820190506125e960008301846125c5565b92915050565b600081519050919050565b600082825260208201905092915050565b60005b8381101561262957808201518184015260208101905061260e565b60008484015250505050565b6000601f19601f8301169050919050565b6000612651826125ef565b61265b81856125fa565b935061266b81856020860161260b565b61267481612635565b840191505092915050565b600060208201905081810360008301526126998184612646565b905092915050565b600073ffffffffffffffffffffffffffffffffffffffff82169050919050565b60006126cc826126a1565b9050919050565b6126dc816126c1565b82525050565b60006020820190506126f760008301846126d3565b92915050565b612706816126c1565b811461271157600080fd5b50565b600081359050612723816126fd565b92915050565b600080604083850312156127405761273f6124c7565b5b600061274e85828601612714565b925050602061275f858286016124f2565b9150509250929050565b600081519050919050565b600082825260208201905092915050565b6000819050602082019050919050565b61279e816124d1565b82525050565b6127ad816126c1565b82525050565b6060820160008201516127c96000850182612795565b5060208201516127dc60208501826127a4565b5060408201516127ef60408501826127a4565b50505050565b600061280183836127b3565b60608301905092915050565b6000602082019050919050565b600061282582612769565b61282f8185612774565b935061283a83612785565b8060005b8381101561286b57815161285288826127f5565b975061285d8361280d565b92505060018101905061283e565b5085935050505092915050565b60006020820190508181036000830152612892818461281a565b905092915050565b6000806000606084860312156128b3576128b26124c7565b5b60006128c186828701612714565b93505060206128d286828701612714565b92505060406128e3868287016124f2565b9150509250925092565b600080fd5b600080fd5b7f4e487b7100000000000000000000000000000000000000000000000000000000600052604160045260246000fd5b61292f82612635565b810181811067ffffffffffffffff8211171561294e5761294d6128f7565b5b80604052505050565b60006129616124bd565b905061296d8282612926565b919050565b600067ffffffffffffffff82111561298d5761298c6128f7565b5b61299682612635565b9050602081019050919050565b82818337600083830152505050565b60006129c56129c084612972565b612957565b9050828152602081018484840111156129e1576129e06128f2565b5b6129ec8482856129a3565b509392505050565b600082601f830112612a0957612a086128ed565b5b8135612a198482602086016129b2565b91505092915050565b600060208284031215612a3857612a376124c7565b5b600082013567ffffffffffffffff811115612a5657612a556124cc565b5b612a62848285016129f4565b91505092915050565b612a74816124d1565b82525050565b6000602082019050612a8f6000830184612a6b565b92915050565b600060208284031215612aab57612aaa6124c7565b5b6000612ab984828501612714565b91505092915050565b612acb816125b9565b8114612ad657600080fd5b50565b600081359050612ae881612ac2565b92915050565b60008060408385031215612b0557612b046124c7565b5b6000612b1385828601612714565b9250506020612b2485828601612ad9565b9150509250929050565b600067ffffffffffffffff821115612b4957612b486128f7565b5b612b5282612635565b9050602081019050919050565b6000612b72612b6d84612b2e565b612957565b905082815260208101848484011115612b8e57612b8d6128f2565b5b612b998482856129a3565b509392505050565b600082601f830112612bb657612bb56128ed565b5b8135612bc6848260208601612b5f565b91505092915050565b60008060008060808587031215612be957612be86124c7565b5b6000612bf787828801612714565b9450506020612c0887828801612714565b9350506040612c19878288016124f2565b925050606085013567ffffffffffffffff811115612c3a57612c396124cc565b5b612c4687828801612ba1565b91505092959194509250565b60008060408385031215612c6957612c686124c7565b5b6000612c7785828601612714565b9250506020612c8885828601612714565b9150509250929050565b7f4f6e6c7920706c6174666f726d206f776e65722063616e20757064617465206d60008201527f696e742070726963652e00000000000000000000000000000000000000000000602082015250565b6000612cee602a836125fa565b9150612cf982612c92565b604082019050919050565b60006020820190508181036000830152612d1d81612ce1565b9050919050565b7f4e487b7100000000000000000000000000000000000000000000000000000000600052602260045260246000fd5b60006002820490506001821680612d6b57607f821691505b602082108103612d7e57612d7d612d24565b5b50919050565b7f4552433732313a20617070726f76616c20746f2063757272656e74206f776e6560008201527f7200000000000000000000000000000000000000000000000000000000000000602082015250565b6000612de06021836125fa565b9150612deb82612d84565b604082019050919050565b60006020820190508181036000830152612e0f81612dd3565b9050919050565b7f4552433732313a20617070726f76652063616c6c6572206973206e6f7420746f60008201527f6b656e206f776e6572206f7220617070726f76656420666f7220616c6c000000602082015250565b6000612e72603d836125fa565b9150612e7d82612e16565b604082019050919050565b60006020820190508181036000830152612ea181612e65565b9050919050565b7f4f6e6c79206974656d206f776e65722063616e20706572666f726d207468697360008201527f206f7065726174696f6e00000000000000000000000000000000000000000000602082015250565b6000612f04602a836125fa565b9150612f0f82612ea8565b604082019050919050565b60006020820190508181036000830152612f3381612ef7565b9050919050565b7f7472616e7366657220746f207a65726f20616464726573730000000000000000600082015250565b6000612f706018836125fa565b9150612f7b82612f3a565b602082019050919050565b60006020820190508181036000830152612f9f81612f63565b9050919050565b7f4e487b7100000000000000000000000000000000000000000000000000000000600052601160045260246000fd5b6000612fe0826124d1565b9150612feb836124d1565b925082820190508082111561300357613002612fa6565b5b92915050565b6000613014826124d1565b91507fffffffffffffffffffffffffffffffffffffffffffffffffffffffffffffffff820361304657613045612fa6565b5b600182019050919050565b7f4e487b7100000000000000000000000000000000000000000000000000000000600052603260045260246000fd5b7f4552433732313a2063616c6c6572206973206e6f7420746f6b656e206f776e6560008201527f72206f7220617070726f76656400000000000000000000000000000000000000602082015250565b60006130dc602d836125fa565b91506130e782613080565b604082019050919050565b6000602082019050818103600083015261310b816130cf565b9050919050565b7f5472616e73616374696f6e2076616c756520646964206e6f7420657175616c2060008201527f746865206d696e74207072696365000000000000000000000000000000000000602082015250565b600061316e602e836125fa565b915061317982613112565b604082019050919050565b6000602082019050818103600083015261319d81613161565b9050919050565b7f4552433732313a20696e76616c696420746f6b656e2049440000000000000000600082015250565b60006131da6018836125fa565b91506131e5826131a4565b602082019050919050565b60006020820190508181036000830152613209816131cd565b9050919050565b7f4552433732313a2061646472657373207a65726f206973206e6f74206120766160008201527f6c6964206f776e65720000000000000000000000000000000000000000000000602082015250565b600061326c6029836125fa565b915061327782613210565b604082019050919050565b6000602082019050818103600083015261329b8161325f565b9050919050565b600081905092915050565b60006132b8826125ef565b6132c281856132a2565b93506132d281856020860161260b565b80840191505092915050565b60006132ea82856132ad565b91506132f682846132ad565b91508190509392505050565b7f4552433732313a207472616e736665722066726f6d20696e636f72726563742060008201527f6f776e6572000000000000000000000000000000000000000000000000000000602082015250565b600061335e6025836125fa565b915061336982613302565b604082019050919050565b6000602082019050818103600083015261338d81613351565b9050919050565b7f4552433732313a207472616e7366657220746f20746865207a65726f2061646460008201527f7265737300000000000000000000000000000000000000000000000000000000602082015250565b60006133f06024836125fa565b91506133fb82613394565b604082019050919050565b6000602082019050818103600083015261341f816133e3565b9050919050565b7f4552433732313a206d696e7420746f20746865207a65726f2061646472657373600082015250565b600061345c6020836125fa565b915061346782613426565b602082019050919050565b6000602082019050818103600083015261348b8161344f565b9050919050565b7f4552433732313a20746f6b656e20616c7265616479206d696e74656400000000600082015250565b60006134c8601c836125fa565b91506134d382613492565b602082019050919050565b600060208201905081810360008301526134f7816134bb565b9050919050565b7f45524337323155524953746f726167653a2055524920736574206f66206e6f6e60008201527f6578697374656e7420746f6b656e000000000000000000000000000000000000602082015250565b600061355a602e836125fa565b9150613565826134fe565b604082019050919050565b600060208201905081810360008301526135898161354d565b9050919050565b60008190508160005260206000209050919050565b60006020601f8301049050919050565b600082821b905092915050565b6000600883026135f27fffffffffffffffffffffffffffffffffffffffffffffffffffffffffffffffff826135b5565b6135fc86836135b5565b95508019841693508086168417925050509392505050565b6000819050919050565b600061363961363461362f846124d1565b613614565b6124d1565b9050919050565b6000819050919050565b6136538361361e565b61366761365f82613640565b8484546135c2565b825550505050565b600090565b61367c61366f565b61368781848461364a565b505050565b5b818110156136ab576136a0600082613674565b60018101905061368d565b5050565b601f8211156136f0576136c181613590565b6136ca846135a5565b810160208510156136d9578190505b6136ed6136e5856135a5565b83018261368c565b50505b505050565b600082821c905092915050565b6000613713600019846008026136f5565b1980831691505092915050565b600061372c8383613702565b9150826002028217905092915050565b613745826125ef565b67ffffffffffffffff81111561375e5761375d6128f7565b5b6137688254612d53565b6137738282856136af565b600060209050601f8311600181146137a65760008415613794578287015190505b61379e8582613720565b865550613806565b601f1984166137b486613590565b60005b828110156137dc578489015182556001820191506020850194506020810190506137b7565b868310156137f957848901516137f5601f891682613702565b8355505b6001600288020188555050505b505050505050565b7f4552433732313a20617070726f766520746f2063616c6c657200000000000000600082015250565b60006138446019836125fa565b915061384f8261380e565b602082019050919050565b6000602082019050818103600083015261387381613837565b9050919050565b7f4552433732313a207472616e7366657220746f206e6f6e20455243373231526560008201527f63656976657220696d706c656d656e7465720000000000000000000000000000602082015250565b60006138d66032836125fa565b91506138e18261387a565b604082019050919050565b60006020820190508181036000830152613905816138c9565b9050919050565b6000613917826124d1565b9150613922836124d1565b925082820390508181111561393a57613939612fa6565b5b92915050565b600081519050919050565b600082825260208201905092915050565b600061396782613940565b613971818561394b565b935061398181856020860161260b565b61398a81612635565b840191505092915050565b60006080820190506139aa60008301876126d3565b6139b760208301866126d3565b6139c46040830185612a6b565b81810360608301526139d6818461395c565b905095945050505050565b6000815190506139f081612560565b92915050565b600060208284031215613a0c57613a0b6124c7565b5b6000613a1a848285016139e1565b91505092915050565b7f4e487b7100000000000000000000000000000000000000000000000000000000600052601260045260246000fdfea2646970667358221220f342b1b3a569dff1c43636bf69b1c719856c6a75964b3cd9d7d8018f3f477b9e64736f6c63430008110033",
  "linkReferences": {},
  "deployedLinkReferences": {}
}